:020000020000FC
:1000000010C00DB507FFFDCF0EB5089512E01A958B
:1000100039F02FEF2A95D9F33FEF3A95D9F3FDCF79
:10002000089508E00EBF0FEF0DBF00ED0CBD0EE20E
:1000300004B90FEF07B9EADF2A9800E20EBDE1DF4D
:100040000AE00EBDDEDF2A9AE1DF2A9801E20EBD4A
:10005000D8DF01E00EBDD5DF2A9A2A9802E20EBD54
:10006000D0DF01E00EBDCDDF2A9A2A9803E20EBD53
:10007000C8DF03E00EBDC5DF2A9A2A9805E20EBD4F
:10008000C0DF02E00EBDBDDF2A9A2A9806E20EBD4F
:10009000B8DF0AE20EBDB5DF2A9A2A9807E20EBD44
:1000A000B0DF00E50EBDADDF2A9A2A980AE20EBD48
:1000B000A8DF07EE0EBDA5DF07EE0EBDA2DF07EE3F
:1000C0000EBD9FDF07EE0EBD9CDF07EE0EBD99DF74
:1000D0002A9A2A9800E30EBD94DF07EE0EBD91DF49
:1000E00007EE0EBD8EDF07EE0EBD8BDF07EE0EBDF9
:1000F00088DF07EE0EBD85DF2A9A2A9801E30EBD40
:1001000080DF01E00EBD7DDF2A9A299A7FDF2998E2
:02011000FCCF22
:00000001FF
