:020000020000FC
:1000000021C00DB507FFFDCF0EB5089512E01A957A
:1000100039F02FEF2A95D9F33FEF3A95D9F3FDCF79
:100020000895DF93CF93CEB7DDB70E810F932A9853
:100030000EBDE7DF0F91073021F00D810EBDE1DF2E
:100040002A9A089508E00EBF0FEF0DBF00ED0CBD1A
:100050000EE204B90FEF07B9D9DF2A9800E20EBD0E
:10006000D0DF0BE00EBDCDDF2A9AD0DF2A9801E267
:100070000EBDC7DF01E00EBDC4DF2A9A2A9802E256
:100080000EBDBFDF01E00EBDBCDF2A9A2A9803E255
:100090000EBDB7DF03E00EBDB4DF2A9A2A9805E251
:1000A0000EBDAFDF02E00EBDACDF2A9A2A9806E251
:1000B0000EBDA7DF0AE20EBDA4DF2A9A2A9807E246
:1000C0000EBD9FDF00E50EBD9CDF2A9A2A980AE24A
:1000D0000EBD97DF07EE0EBD94DF07EE0EBD91DF7C
:1000E00007EE0EBD8EDF07EE0EBD8BDF07EE0EBDF9
:1000F00088DF2A9A2A9800E30EBD83DF07EE0EBD43
:1001000080DF07EE0EBD7DDF07EE0EBD7ADF07EE66
:100110000EBD77DF07EE0EBD74DF2A9A2A9801E341
:100120000EBD6FDF01E00EBD6CDF2A9A299A6EDFEB
:1001300029982A9801E60EBD64DF0FEF0EBD61DF3E
:060140002A9A64DFF6CFED
:00000001FF
