:020000020000FC
:1000000010C00DB507FFFDCF0EB5089512E01A958B
:1000100039F02FEF2A95D9F33FEF3A95D9F3FDCF79
:10002000089508E00EBF0FEF0DBF00ED0CBD0EE20E
:1000300004B9ECDF2A9801EE0EBDE3DF2A9A2A9874
:1000400000E20EBDDEDF02E00EBDDBDF2A9ADEDF5E
:100050002A9801E30EBDD5DF01E00EBDD2DF2A9A5A
:100060002A9800EA0EBDCDDF06E60EBDCADF2A9A49
:100070002A9800EA0EBDC5DF07E70EBDC2DF2A9A47
:100080002A9800EA0EBDBDDF08E80EBDBADF2A9A45
:100090002A9807E10EBDB5DF0FEF0EBDB2DF2A9A39
:0800A000299AB4DF2998DCCF96
:00000001FF
